{
  "contractName": "FinancialTransaction",
  "abi": [
    {
      "inputs": [],
      "stateMutability": "nonpayable",
      "type": "constructor"
    },
    {
      "inputs": [
        {
          "internalType": "address",
          "name": "owner",
          "type": "address"
        }
      ],
      "name": "OwnableInvalidOwner",
      "type": "error"
    },
    {
      "inputs": [
        {
          "internalType": "address",
          "name": "account",
          "type": "address"
        }
      ],
      "name": "OwnableUnauthorizedAccount",
      "type": "error"
    },
    {
      "inputs": [],
      "name": "ReentrancyGuardReentrantCall",
      "type": "error"
    },
    {
      "anonymous": false,
      "inputs": [
        {
          "indexed": true,
          "internalType": "address",
          "name": "previousOwner",
          "type": "address"
        },
        {
          "indexed": true,
          "internalType": "address",
          "name": "newOwner",
          "type": "address"
        }
      ],
      "name": "OwnershipTransferred",
      "type": "event"
    },
    {
      "anonymous": false,
      "inputs": [
        {
          "indexed": true,
          "internalType": "bytes32",
          "name": "hash",
          "type": "bytes32"
        },
        {
          "indexed": false,
          "internalType": "string",
          "name": "note",
          "type": "string"
        }
      ],
      "name": "TransactionNoteUpdated",
      "type": "event"
    },
    {
      "anonymous": false,
      "inputs": [
        {
          "indexed": true,
          "internalType": "bytes32",
          "name": "hash",
          "type": "bytes32"
        },
        {
          "indexed": false,
          "internalType": "string",
          "name": "transactionId",
          "type": "string"
        },
        {
          "indexed": false,
          "internalType": "string",
          "name": "senderAccount",
          "type": "string"
        },
        {
          "indexed": false,
          "internalType": "string",
          "name": "receiverAccount",
          "type": "string"
        },
        {
          "indexed": false,
          "internalType": "uint256",
          "name": "amount",
          "type": "uint256"
        },
        {
          "indexed": false,
          "internalType": "enum FinancialTransaction.Currency",
          "name": "currency",
          "type": "uint8"
        },
        {
          "indexed": false,
          "internalType": "uint256",
          "name": "timestamp",
          "type": "uint256"
        },
        {
          "indexed": false,
          "internalType": "uint256",
          "name": "blockTimestamp",
          "type": "uint256"
        },
        {
          "indexed": false,
          "internalType": "string",
          "name": "note",
          "type": "string"
        }
      ],
      "name": "TransactionRecorded",
      "type": "event"
    },
    {
      "anonymous": false,
      "inputs": [
        {
          "indexed": false,
          "internalType": "address",
          "name": "user",
          "type": "address"
        }
      ],
      "name": "UserAuthorized",
      "type": "event"
    },
    {
      "anonymous": false,
      "inputs": [
        {
          "indexed": false,
          "internalType": "address",
          "name": "user",
          "type": "address"
        }
      ],
      "name": "UserUnauthorized",
      "type": "event"
    },
    {
      "inputs": [],
      "name": "owner",
      "outputs": [
        {
          "internalType": "address",
          "name": "",
          "type": "address"
        }
      ],
      "stateMutability": "view",
      "type": "function",
      "constant": true
    },
    {
      "inputs": [],
      "name": "renounceOwnership",
      "outputs": [],
      "stateMutability": "nonpayable",
      "type": "function"
    },
    {
      "inputs": [
        {
          "internalType": "address",
          "name": "newOwner",
          "type": "address"
        }
      ],
      "name": "transferOwnership",
      "outputs": [],
      "stateMutability": "nonpayable",
      "type": "function"
    },
    {
      "inputs": [
        {
          "internalType": "address",
          "name": "user",
          "type": "address"
        }
      ],
      "name": "authorizeUser",
      "outputs": [],
      "stateMutability": "nonpayable",
      "type": "function"
    },
    {
      "inputs": [
        {
          "internalType": "address",
          "name": "user",
          "type": "address"
        }
      ],
      "name": "unauthorizeUser",
      "outputs": [],
      "stateMutability": "nonpayable",
      "type": "function"
    },
    {
      "inputs": [
        {
          "internalType": "string",
          "name": "_transactionId",
          "type": "string"
        },
        {
          "internalType": "string",
          "name": "_senderAccount",
          "type": "string"
        },
        {
          "internalType": "string",
          "name": "_receiverAccount",
          "type": "string"
        },
        {
          "internalType": "uint256",
          "name": "_amount",
          "type": "uint256"
        },
        {
          "internalType": "enum FinancialTransaction.Currency",
          "name": "_currency",
          "type": "uint8"
        },
        {
          "internalType": "uint256",
          "name": "_timestamp",
          "type": "uint256"
        },
        {
          "internalType": "string",
          "name": "_note",
          "type": "string"
        }
      ],
      "name": "recordTransaction",
      "outputs": [
        {
          "internalType": "bytes32",
          "name": "",
          "type": "bytes32"
        }
      ],
      "stateMutability": "nonpayable",
      "type": "function"
    },
    {
      "inputs": [
        {
          "internalType": "bytes32",
          "name": "_transactionHash",
          "type": "bytes32"
        }
      ],
      "name": "getTransactionByHash",
      "outputs": [
        {
          "components": [
            {
              "internalType": "string",
              "name": "transactionId",
              "type": "string"
            },
            {
              "internalType": "string",
              "name": "senderAccount",
              "type": "string"
            },
            {
              "internalType": "string",
              "name": "receiverAccount",
              "type": "string"
            },
            {
              "internalType": "uint256",
              "name": "amount",
              "type": "uint256"
            },
            {
              "internalType": "enum FinancialTransaction.Currency",
              "name": "currency",
              "type": "uint8"
            },
            {
              "internalType": "uint256",
              "name": "timestamp",
              "type": "uint256"
            },
            {
              "internalType": "uint256",
              "name": "blockTimestamp",
              "type": "uint256"
            },
            {
              "internalType": "string",
              "name": "note",
              "type": "string"
            }
          ],
          "internalType": "struct FinancialTransaction.Transaction",
          "name": "",
          "type": "tuple"
        }
      ],
      "stateMutability": "view",
      "type": "function",
      "constant": true
    },
    {
      "inputs": [
        {
          "internalType": "string",
          "name": "_account",
          "type": "string"
        }
      ],
      "name": "getAccountTransactions",
      "outputs": [
        {
          "internalType": "bytes32[]",
          "name": "",
          "type": "bytes32[]"
        }
      ],
      "stateMutability": "view",
      "type": "function",
      "constant": true
    },
    {
      "inputs": [
        {
          "internalType": "enum FinancialTransaction.Currency",
          "name": "_currency",
          "type": "uint8"
        }
      ],
      "name": "getCurrencyName",
      "outputs": [
        {
          "internalType": "string",
          "name": "",
          "type": "string"
        }
      ],
      "stateMutability": "pure",
      "type": "function",
      "constant": true
    },
    {
      "inputs": [
        {
          "internalType": "bytes32",
          "name": "_transactionHash",
          "type": "bytes32"
        },
        {
          "internalType": "string",
          "name": "_note",
          "type": "string"
        }
      ],
      "name": "updateTransactionNote",
      "outputs": [],
      "stateMutability": "nonpayable",
      "type": "function"
    },
    {
      "inputs": [
        {
          "internalType": "address",
          "name": "user",
          "type": "address"
        }
      ],
      "name": "isAuthorized",
      "outputs": [
        {
          "internalType": "bool",
          "name": "",
          "type": "bool"
        }
      ],
      "stateMutability": "view",
      "type": "function",
      "constant": true
    }
  ],
  "bytecode": "0x608060405234801561001057600080fd5b5033600073ffffffffffffffffffffffffffffffffffffffff168173ffffffffffffffffffffffffffffffffffffffff16036100845760006040517f1e4fbdf700000000000000000000000000000000000000000000000000000000815260040161007b91906101fd565b60405180910390fd5b610093816100f860201b60201c565b50600180819055506001600460003373ffffffffffffffffffffffffffffffffffffffff1673ffffffffffffffffffffffffffffffffffffffff16815260200190815260200160002060006101000a81548160ff021916908315150217905550610218565b60008060009054906101000a900473ffffffffffffffffffffffffffffffffffffffff169050816000806101000a81548173ffffffffffffffffffffffffffffffffffffffff021916908373ffffffffffffffffffffffffffffffffffffffff1602179055508173ffffffffffffffffffffffffffffffffffffffff168173ffffffffffffffffffffffffffffffffffffffff167f8be0079c531659141344cd1fd0a4f28419497f9722a3daafe3b4186f6b6457e060405160405180910390a35050565b600073ffffffffffffffffffffffffffffffffffffffff82169050919050565b60006101e7826101bc565b9050919050565b6101f7816101dc565b82525050565b600060208201905061021260008301846101ee565b92915050565b612242806102276000396000f3fe608060405234801561001057600080fd5b50600436106100a95760003560e01c80638da5cb5b116100715780638da5cb5b146101505780639cae65591461016e578063d3e1d1fc1461019e578063ee3d7ad3146101ba578063f2fde38b146101ea578063fe9fbb8014610206576100a9565b8063478aa69e146100ae57806353a9e3db146100ca57806367c2a360146100fa578063715018a6146101165780638c4f2f1114610120575b600080fd5b6100c860048036038101906100c39190611220565b610236565b005b6100e460048036038101906100df91906113ee565b6102d0565b6040516100f19190611519565b60405180910390f35b610114600480360381019061010f9190611220565b6106f4565b005b61011e61078e565b005b61013a60048036038101906101359190611534565b6107a2565b60405161014791906115e0565b60405180910390f35b6101586108b5565b6040516101659190611611565b60405180910390f35b6101886004803603810190610183919061162c565b6108de565b6040516101959190611733565b60405180910390f35b6101b860048036038101906101b39190611781565b6109e0565b005b6101d460048036038101906101cf91906117dd565b610b25565b6040516101e1919061199f565b60405180910390f35b61020460048036038101906101ff9190611220565b610ed9565b005b610220600480360381019061021b9190611220565b610f5f565b60405161022d91906119dc565b60405180910390f35b61023e610fb5565b6000600460008373ffffffffffffffffffffffffffffffffffffffff1673ffffffffffffffffffffffffffffffffffffffff16815260200190815260200160002060006101000a81548160ff0219169083151502179055507f39814f442b71862bed3e83dececad92d06dba81a8dbbd9459237ae953efd4a92816040516102c59190611611565b60405180910390a150565b6000600460003373ffffffffffffffffffffffffffffffffffffffff1673ffffffffffffffffffffffffffffffffffffffff16815260200190815260200160002060009054906101000a900460ff1661035e576040517f08c379a000000000000000000000000000000000000000000000000000000000815260040161035590611a43565b60405180910390fd5b61036661103c565b60008851116103aa576040517f08c379a00000000000000000000000000000000000000000000000000000000081526004016103a190611aaf565b60405180910390fd5b60008751116103ee576040517f08c379a00000000000000000000000000000000000000000000000000000000081526004016103e590611b1b565b60405180910390fd5b6000865111610432576040517f08c379a000000000000000000000000000000000000000000000000000000000815260040161042990611b87565b60405180910390fd5b60008511610475576040517f08c379a000000000000000000000000000000000000000000000000000000000815260040161046c90611bf3565b60405180910390fd5b6000888888888888426040516020016104949796959493929190611ca6565b6040516020818303038152906040528051906020012090506000600260008381526020019081526020016000206005015414610505576040517f08c379a00000000000000000000000000000000000000000000000000000000081526004016104fc90611d67565b60405180910390fd5b6040518061010001604052808a815260200189815260200188815260200187815260200186600181111561053c5761053b611863565b5b8152602001858152602001428152602001848152506002600083815260200190815260200160002060008201518160000190816105799190611f93565b50602082015181600101908161058f9190611f93565b5060408201518160020190816105a59190611f93565b506060820151816003015560808201518160040160006101000a81548160ff021916908360018111156105db576105da611863565b5b021790555060a0820151816005015560c0820151816006015560e08201518160070190816106099190611f93565b5090505060038860405161061d9190612065565b90815260200160405180910390208190806001815401808255809150506001900390600052602060002001600090919091909150556003876040516106629190612065565b9081526020016040518091039020819080600181540180825580915050600190039060005260206000200160009091909190915055807fb607de420036a4d0aeca386fc2185b7a865baebac29240ab811c596059cf15078a8a8a8a8a8a428b6040516106d598979695949392919061209a565b60405180910390a2809150506106e9611082565b979650505050505050565b6106fc610fb5565b6001600460008373ffffffffffffffffffffffffffffffffffffffff1673ffffffffffffffffffffffffffffffffffffffff16815260200190815260200160002060006101000a81548160ff0219169083151502179055507fb0be505cf6e26533f3066ac7722c3f8a5e8a123f43187c7832d333c49603b146816040516107839190611611565b60405180910390a150565b610796610fb5565b6107a0600061108b565b565b6060600060018111156107b8576107b7611863565b5b8260018111156107cb576107ca611863565b5b0361080d576040518060400160405280600381526020017f555344000000000000000000000000000000000000000000000000000000000081525090506108b0565b6001808111156108205761081f611863565b5b82600181111561083357610832611863565b5b03610875576040518060400160405280600381526020017f455552000000000000000000000000000000000000000000000000000000000081525090506108b0565b6040517f08c379a00000000000000000000000000000000000000000000000000000000081526004016108a790612180565b60405180910390fd5b919050565b60008060009054906101000a900473ffffffffffffffffffffffffffffffffffffffff16905090565b6060600460003373ffffffffffffffffffffffffffffffffffffffff1673ffffffffffffffffffffffffffffffffffffffff16815260200190815260200160002060009054906101000a900460ff1661096c576040517f08c379a000000000000000000000000000000000000000000000000000000000815260040161096390611a43565b60405180910390fd5b60038260405161097c9190612065565b90815260200160405180910390208054806020026020016040519081016040528092919081815260200182805480156109d457602002820191906000526020600020905b8154815260200190600101908083116109c0575b50505050509050919050565b600460003373ffffffffffffffffffffffffffffffffffffffff1673ffffffffffffffffffffffffffffffffffffffff16815260200190815260200160002060009054906101000a900460ff16610a6c576040517f08c379a0000000000000000000000000000000000000000000000000000000008152600401610a6390611a43565b60405180910390fd5b6000600260008481526020019081526020016000206005015403610ac5576040517f08c379a0000000000000000000000000000000000000000000000000000000008152600401610abc906121ec565b60405180910390fd5b80600260008481526020019081526020016000206007019081610ae89190611f93565b50817fa009e6b329e30e84a7362ac8291febe4eae3b9333a71a690d24df6c2727a430c82604051610b1991906115e0565b60405180910390a25050565b610b2d611157565b600460003373ffffffffffffffffffffffffffffffffffffffff1673ffffffffffffffffffffffffffffffffffffffff16815260200190815260200160002060009054906101000a900460ff16610bb9576040517f08c379a0000000000000000000000000000000000000000000000000000000008152600401610bb090611a43565b60405180910390fd5b6000600260008481526020019081526020016000206005015403610c12576040517f08c379a0000000000000000000000000000000000000000000000000000000008152600401610c09906121ec565b60405180910390fd5b6002600083815260200190815260200160002060405180610100016040529081600082018054610c4190611db6565b80601f0160208091040260200160405190810160405280929190818152602001828054610c6d90611db6565b8015610cba5780601f10610c8f57610100808354040283529160200191610cba565b820191906000526020600020905b815481529060010190602001808311610c9d57829003601f168201915b50505050508152602001600182018054610cd390611db6565b80601f0160208091040260200160405190810160405280929190818152602001828054610cff90611db6565b8015610d4c5780601f10610d2157610100808354040283529160200191610d4c565b820191906000526020600020905b815481529060010190602001808311610d2f57829003601f168201915b50505050508152602001600282018054610d6590611db6565b80601f0160208091040260200160405190810160405280929190818152602001828054610d9190611db6565b8015610dde5780601f10610db357610100808354040283529160200191610dde565b820191906000526020600020905b815481529060010190602001808311610dc157829003601f168201915b50505050508152602001600382015481526020016004820160009054906101000a900460ff166001811115610e1657610e15611863565b5b6001811115610e2857610e27611863565b5b81526020016005820154815260200160068201548152602001600782018054610e5090611db6565b80601f0160208091040260200160405190810160405280929190818152602001828054610e7c90611db6565b8015610ec95780601f10610e9e57610100808354040283529160200191610ec9565b820191906000526020600020905b815481529060010190602001808311610eac57829003601f168201915b5050505050815250509050919050565b610ee1610fb5565b600073ffffffffffffffffffffffffffffffffffffffff168173ffffffffffffffffffffffffffffffffffffffff1603610f535760006040517f1e4fbdf7000000000000000000000000000000000000000000000000000000008152600401610f4a9190611611565b60405180910390fd5b610f5c8161108b565b50565b6000600460008373ffffffffffffffffffffffffffffffffffffffff1673ffffffffffffffffffffffffffffffffffffffff16815260200190815260200160002060009054906101000a900460ff169050919050565b610fbd61114f565b73ffffffffffffffffffffffffffffffffffffffff16610fdb6108b5565b73ffffffffffffffffffffffffffffffffffffffff161461103a57610ffe61114f565b6040517f118cdaa70000000000000000000000000000000000000000000000000000000081526004016110319190611611565b60405180910390fd5b565b600260015403611078576040517f3ee5aeb500000000000000000000000000000000000000000000000000000000815260040160405180910390fd5b6002600181905550565b60018081905550565b60008060009054906101000a900473ffffffffffffffffffffffffffffffffffffffff169050816000806101000a81548173ffffffffffffffffffffffffffffffffffffffff021916908373ffffffffffffffffffffffffffffffffffffffff1602179055508173ffffffffffffffffffffffffffffffffffffffff168173ffffffffffffffffffffffffffffffffffffffff167f8be0079c531659141344cd1fd0a4f28419497f9722a3daafe3b4186f6b6457e060405160405180910390a35050565b600033905090565b604051806101000160405280606081526020016060815260200160608152602001600081526020016000600181111561119357611192611863565b5b81526020016000815260200160008152602001606081525090565b6000604051905090565b600080fd5b600080fd5b600073ffffffffffffffffffffffffffffffffffffffff82169050919050565b60006111ed826111c2565b9050919050565b6111fd816111e2565b811461120857600080fd5b50565b60008135905061121a816111f4565b92915050565b600060208284031215611236576112356111b8565b5b60006112448482850161120b565b91505092915050565b600080fd5b600080fd5b6000601f19601f8301169050919050565b7f4e487b7100000000000000000000000000000000000000000000000000000000600052604160045260246000fd5b6112a082611257565b810181811067ffffffffffffffff821117156112bf576112be611268565b5b80604052505050565b60006112d26111ae565b90506112de8282611297565b919050565b600067ffffffffffffffff8211156112fe576112fd611268565b5b61130782611257565b9050602081019050919050565b82818337600083830152505050565b6000611336611331846112e3565b6112c8565b90508281526020810184848401111561135257611351611252565b5b61135d848285611314565b509392505050565b600082601f83011261137a5761137961124d565b5b813561138a848260208601611323565b91505092915050565b6000819050919050565b6113a681611393565b81146113b157600080fd5b50565b6000813590506113c38161139d565b92915050565b600281106113d657600080fd5b50565b6000813590506113e8816113c9565b92915050565b600080600080600080600060e0888a03121561140d5761140c6111b8565b5b600088013567ffffffffffffffff81111561142b5761142a6111bd565b5b6114378a828b01611365565b975050602088013567ffffffffffffffff811115611458576114576111bd565b5b6114648a828b01611365565b965050604088013567ffffffffffffffff811115611485576114846111bd565b5b6114918a828b01611365565b95505060606114a28a828b016113b4565b94505060806114b38a828b016113d9565b93505060a06114c48a828b016113b4565b92505060c088013567ffffffffffffffff8111156114e5576114e46111bd565b5b6114f18a828b01611365565b91505092959891949750929550565b6000819050919050565b61151381611500565b82525050565b600060208201905061152e600083018461150a565b92915050565b60006020828403121561154a576115496111b8565b5b6000611558848285016113d9565b91505092915050565b600081519050919050565b600082825260208201905092915050565b60005b8381101561159b578082015181840152602081019050611580565b60008484015250505050565b60006115b282611561565b6115bc818561156c565b93506115cc81856020860161157d565b6115d581611257565b840191505092915050565b600060208201905081810360008301526115fa81846115a7565b905092915050565b61160b816111e2565b82525050565b60006020820190506116266000830184611602565b92915050565b600060208284031215611642576116416111b8565b5b600082013567ffffffffffffffff8111156116605761165f6111bd565b5b61166c84828501611365565b91505092915050565b600081519050919050565b600082825260208201905092915050565b6000819050602082019050919050565b6116aa81611500565b82525050565b60006116bc83836116a1565b60208301905092915050565b6000602082019050919050565b60006116e082611675565b6116ea8185611680565b93506116f583611691565b8060005b8381101561172657815161170d88826116b0565b9750611718836116c8565b9250506001810190506116f9565b5085935050505092915050565b6000602082019050818103600083015261174d81846116d5565b905092915050565b61175e81611500565b811461176957600080fd5b50565b60008135905061177b81611755565b92915050565b60008060408385031215611798576117976111b8565b5b60006117a68582860161176c565b925050602083013567ffffffffffffffff8111156117c7576117c66111bd565b5b6117d385828601611365565b9150509250929050565b6000602082840312156117f3576117f26111b8565b5b60006118018482850161176c565b91505092915050565b600082825260208201905092915050565b600061182682611561565b611830818561180a565b935061184081856020860161157d565b61184981611257565b840191505092915050565b61185d81611393565b82525050565b7f4e487b7100000000000000000000000000000000000000000000000000000000600052602160045260246000fd5b600281106118a3576118a2611863565b5b50565b60008190506118b482611892565b919050565b60006118c4826118a6565b9050919050565b6118d4816118b9565b82525050565b60006101008301600083015184820360008601526118f8828261181b565b91505060208301518482036020860152611912828261181b565b9150506040830151848203604086015261192c828261181b565b91505060608301516119416060860182611854565b50608083015161195460808601826118cb565b5060a083015161196760a0860182611854565b5060c083015161197a60c0860182611854565b5060e083015184820360e0860152611992828261181b565b9150508091505092915050565b600060208201905081810360008301526119b981846118da565b905092915050565b60008115159050919050565b6119d6816119c1565b82525050565b60006020820190506119f160008301846119cd565b92915050565b7f4e6f7420617574686f72697a6564000000000000000000000000000000000000600082015250565b6000611a2d600e8361156c565b9150611a38826119f7565b602082019050919050565b60006020820190508181036000830152611a5c81611a20565b9050919050565b7f5472616e73616374696f6e2049442063616e6e6f7420626520656d7074790000600082015250565b6000611a99601e8361156c565b9150611aa482611a63565b602082019050919050565b60006020820190508181036000830152611ac881611a8c565b9050919050565b7f53656e646572206163636f756e742063616e6e6f7420626520656d7074790000600082015250565b6000611b05601e8361156c565b9150611b1082611acf565b602082019050919050565b60006020820190508181036000830152611b3481611af8565b9050919050565b7f5265636569766572206163636f756e742063616e6e6f7420626520656d707479600082015250565b6000611b7160208361156c565b9150611b7c82611b3b565b602082019050919050565b60006020820190508181036000830152611ba081611b64565b9050919050565b7f416d6f756e74206d7573742062652067726561746572207468616e2030000000600082015250565b6000611bdd601d8361156c565b9150611be882611ba7565b602082019050919050565b60006020820190508181036000830152611c0c81611bd0565b9050919050565b600081905092915050565b6000611c2982611561565b611c338185611c13565b9350611c4381856020860161157d565b80840191505092915050565b6000819050919050565b611c6a611c6582611393565b611c4f565b82525050565b60008160f81b9050919050565b6000611c8882611c70565b9050919050565b611ca0611c9b826118b9565b611c7d565b82525050565b6000611cb2828a611c1e565b9150611cbe8289611c1e565b9150611cca8288611c1e565b9150611cd68287611c59565b602082019150611ce68286611c8f565b600182019150611cf68285611c59565b602082019150611d068284611c59565b60208201915081905098975050505050505050565b7f5472616e73616374696f6e20616c726561647920657869737473000000000000600082015250565b6000611d51601a8361156c565b9150611d5c82611d1b565b602082019050919050565b60006020820190508181036000830152611d8081611d44565b9050919050565b7f4e487b7100000000000000000000000000000000000000000000000000000000600052602260045260246000fd5b60006002820490506001821680611dce57607f821691505b602082108103611de157611de0611d87565b5b50919050565b60008190508160005260206000209050919050565b60006020601f8301049050919050565b600082821b905092915050565b600060088302611e497fffffffffffffffffffffffffffffffffffffffffffffffffffffffffffffffff82611e0c565b611e538683611e0c565b95508019841693508086168417925050509392505050565b6000819050919050565b6000611e90611e8b611e8684611393565b611e6b565b611393565b9050919050565b6000819050919050565b611eaa83611e75565b611ebe611eb682611e97565b848454611e19565b825550505050565b600090565b611ed3611ec6565b611ede818484611ea1565b505050565b5b81811015611f0257611ef7600082611ecb565b600181019050611ee4565b5050565b601f821115611f4757611f1881611de7565b611f2184611dfc565b81016020851015611f30578190505b611f44611f3c85611dfc565b830182611ee3565b50505b505050565b600082821c905092915050565b6000611f6a60001984600802611f4c565b1980831691505092915050565b6000611f838383611f59565b9150826002028217905092915050565b611f9c82611561565b67ffffffffffffffff811115611fb557611fb4611268565b5b611fbf8254611db6565b611fca828285611f06565b600060209050601f831160018114611ffd5760008415611feb578287015190505b611ff58582611f77565b86555061205d565b601f19841661200b86611de7565b60005b828110156120335784890151825560018201915060208501945060208101905061200e565b86831015612050578489015161204c601f891682611f59565b8355505b6001600288020188555050505b505050505050565b60006120718284611c1e565b915081905092915050565b61208581611393565b82525050565b612094816118b9565b82525050565b60006101008201905081810360008301526120b5818b6115a7565b905081810360208301526120c9818a6115a7565b905081810360408301526120dd81896115a7565b90506120ec606083018861207c565b6120f9608083018761208b565b61210660a083018661207c565b61211360c083018561207c565b81810360e083015261212581846115a7565b90509998505050505050505050565b7f496e76616c69642063757272656e637900000000000000000000000000000000600082015250565b600061216a60108361156c565b915061217582612134565b602082019050919050565b600060208201905081810360008301526121998161215d565b9050919050565b7f5472616e73616374696f6e20646f6573206e6f74206578697374000000000000600082015250565b60006121d6601a8361156c565b91506121e1826121a0565b602082019050919050565b60006020820190508181036000830152612205816121c9565b905091905056fea2646970667358221220e819578da9bd1e1aeb1d560d9e8d875e8a3c77ca4a7dc0b5e71f197a95804ca564736f6c634300081a0033",
  "immutableReferences": {},
  "source": "// SPDX-License-Identifier: MIT\r\npragma solidity ^0.8.0;\r\n\r\nimport \"@openzeppelin/contracts/access/Ownable.sol\";\r\nimport \"@openzeppelin/contracts/utils/ReentrancyGuard.sol\";\r\nimport \"@openzeppelin/contracts/utils/Strings.sol\";\r\n\r\ncontract FinancialTransaction is Ownable, ReentrancyGuard {\r\n    using Strings for uint256;\r\n    \r\n    enum Currency { USD, EUR }\r\n    \r\n    struct Transaction {\r\n        string transactionId;\r\n        string senderAccount;\r\n        string receiverAccount;\r\n        uint256 amount;\r\n        Currency currency;\r\n        uint256 timestamp;\r\n        uint256 blockTimestamp;\r\n        string note;\r\n    }\r\n\r\n    mapping(bytes32 => Transaction) private transactions;\r\n    mapping(string => bytes32[]) private accountTransactions;\r\n    mapping(address => bool) private authorizedUsers;\r\n\r\n    event TransactionRecorded(\r\n        bytes32 indexed hash,\r\n        string transactionId,\r\n        string senderAccount,\r\n        string receiverAccount,\r\n        uint256 amount,\r\n        Currency currency,\r\n        uint256 timestamp,\r\n        uint256 blockTimestamp,\r\n        string note\r\n    );\r\n\r\n    event TransactionNoteUpdated(bytes32 indexed hash, string note);\r\n    event UserAuthorized(address user);\r\n    event UserUnauthorized(address user);\r\n\r\n    constructor() Ownable(msg.sender) {\r\n        authorizedUsers[msg.sender] = true;\r\n    }\r\n\r\n    modifier onlyAuthorized() {\r\n        require(authorizedUsers[msg.sender], \"Not authorized\");\r\n        _;\r\n    }\r\n\r\n    function authorizeUser(address user) public onlyOwner {\r\n        authorizedUsers[user] = true;\r\n        emit UserAuthorized(user);\r\n    }\r\n\r\n    function unauthorizeUser(address user) public onlyOwner {\r\n        authorizedUsers[user] = false;\r\n        emit UserUnauthorized(user);\r\n    }\r\n\r\n    function recordTransaction(\r\n        string memory _transactionId,\r\n        string memory _senderAccount,\r\n        string memory _receiverAccount,\r\n        uint256 _amount,\r\n        Currency _currency,\r\n        uint256 _timestamp,\r\n        string memory _note\r\n    ) public onlyAuthorized nonReentrant returns (bytes32) {\r\n        require(bytes(_transactionId).length > 0, \"Transaction ID cannot be empty\");\r\n        require(bytes(_senderAccount).length > 0, \"Sender account cannot be empty\");\r\n        require(bytes(_receiverAccount).length > 0, \"Receiver account cannot be empty\");\r\n        require(_amount > 0, \"Amount must be greater than 0\");\r\n        \r\n        bytes32 transactionHash = keccak256(abi.encodePacked(_transactionId, _senderAccount, _receiverAccount, _amount, _currency, _timestamp, block.timestamp));\r\n        \r\n        require(transactions[transactionHash].timestamp == 0, \"Transaction already exists\");\r\n\r\n        transactions[transactionHash] = Transaction({\r\n            transactionId: _transactionId,\r\n            senderAccount: _senderAccount,\r\n            receiverAccount: _receiverAccount,\r\n            amount: _amount,\r\n            currency: _currency,\r\n            timestamp: _timestamp,\r\n            blockTimestamp: block.timestamp,\r\n            note: _note\r\n        });\r\n\r\n        accountTransactions[_senderAccount].push(transactionHash);\r\n        accountTransactions[_receiverAccount].push(transactionHash);\r\n\r\n        emit TransactionRecorded(\r\n            transactionHash,\r\n            _transactionId,\r\n            _senderAccount,\r\n            _receiverAccount,\r\n            _amount,\r\n            _currency,\r\n            _timestamp,\r\n            block.timestamp,\r\n            _note\r\n        );\r\n\r\n        return transactionHash;\r\n    }\r\n\r\n    function getTransactionByHash(bytes32 _transactionHash) public view onlyAuthorized returns (Transaction memory) {\r\n        require(transactions[_transactionHash].timestamp != 0, \"Transaction does not exist\");\r\n        return transactions[_transactionHash];\r\n    }\r\n\r\n    function getAccountTransactions(string memory _account) public view onlyAuthorized returns (bytes32[] memory) {\r\n        return accountTransactions[_account];\r\n    }\r\n\r\n    function getCurrencyName(Currency _currency) public pure returns (string memory) {\r\n        if (_currency == Currency.USD) {\r\n            return \"USD\";\r\n        } else if (_currency == Currency.EUR) {\r\n            return \"EUR\";\r\n        } else {\r\n            revert(\"Invalid currency\");\r\n        }\r\n    }\r\n\r\n    function updateTransactionNote(bytes32 _transactionHash, string memory _note) public onlyAuthorized {\r\n        require(transactions[_transactionHash].timestamp != 0, \"Transaction does not exist\");\r\n        transactions[_transactionHash].note = _note;\r\n        emit TransactionNoteUpdated(_transactionHash, _note);\r\n    }\r\n\r\n    function isAuthorized(address user) public view returns (bool) {\r\n        return authorizedUsers[user];\r\n    }\r\n}",
  "sourcePath": "C:\\Users\\mlb\\Desktop\\daap\\contracts\\FinancialTransaction.sol",
  "compiler": {
    "name": "solc",
    "version": "0.8.26+commit.8a97fa7a.Emscripten.clang"
  },
  "schemaVersion": "3.4.16",
  "updatedAt": "2024-10-25T06:58:45.505Z",
  "networkType": "ethereum",
  "devdoc": {
    "errors": {
      "OwnableInvalidOwner(address)": [
        {
          "details": "The owner is not a valid owner account. (eg. `address(0)`)"
        }
      ],
      "OwnableUnauthorizedAccount(address)": [
        {
          "details": "The caller account is not authorized to perform an operation."
        }
      ],
      "ReentrancyGuardReentrantCall()": [
        {
          "details": "Unauthorized reentrant call."
        }
      ]
    },
    "kind": "dev",
    "methods": {
      "owner()": {
        "details": "Returns the address of the current owner."
      },
      "renounceOwnership()": {
        "details": "Leaves the contract without owner. It will not be possible to call `onlyOwner` functions. Can only be called by the current owner. NOTE: Renouncing ownership will leave the contract without an owner, thereby disabling any functionality that is only available to the owner."
      },
      "transferOwnership(address)": {
        "details": "Transfers ownership of the contract to a new account (`newOwner`). Can only be called by the current owner."
      }
    },
    "version": 1
  },
  "userdoc": {
    "kind": "user",
    "methods": {},
    "version": 1
  }
}